{
  "contractName": "Auction",
  "abi": [
    {
      "inputs": [
        {
          "internalType": "address payable",
          "name": "_beneficiary",
          "type": "address"
        },
        {
          "internalType": "uint256",
          "name": "_after",
          "type": "uint256"
        }
      ],
      "stateMutability": "nonpayable",
      "type": "constructor"
    },
    {
      "anonymous": false,
      "inputs": [
        {
          "indexed": false,
          "internalType": "address",
          "name": "_bidder",
          "type": "address"
        },
        {
          "indexed": false,
          "internalType": "uint256",
          "name": "_bid",
          "type": "uint256"
        }
      ],
      "name": "AuctionEnded",
      "type": "event"
    },
    {
      "anonymous": false,
      "inputs": [
        {
          "indexed": false,
          "internalType": "address",
          "name": "_bidder",
          "type": "address"
        },
        {
          "indexed": false,
          "internalType": "uint256",
          "name": "_bid",
          "type": "uint256"
        }
      ],
      "name": "HighestBidIncreased",
      "type": "event"
    },
    {
      "inputs": [],
      "name": "beneficiary",
      "outputs": [
        {
          "internalType": "address payable",
          "name": "",
          "type": "address"
        }
      ],
      "stateMutability": "view",
      "type": "function",
      "constant": true
    },
    {
      "inputs": [],
      "name": "deadline",
      "outputs": [
        {
          "internalType": "uint256",
          "name": "",
          "type": "uint256"
        }
      ],
      "stateMutability": "view",
      "type": "function",
      "constant": true
    },
    {
      "inputs": [],
      "name": "ended",
      "outputs": [
        {
          "internalType": "bool",
          "name": "",
          "type": "bool"
        }
      ],
      "stateMutability": "view",
      "type": "function",
      "constant": true
    },
    {
      "inputs": [],
      "name": "highestBid",
      "outputs": [
        {
          "internalType": "uint256",
          "name": "",
          "type": "uint256"
        }
      ],
      "stateMutability": "view",
      "type": "function",
      "constant": true
    },
    {
      "inputs": [],
      "name": "highestBidder",
      "outputs": [
        {
          "internalType": "address",
          "name": "",
          "type": "address"
        }
      ],
      "stateMutability": "view",
      "type": "function",
      "constant": true
    },
    {
      "inputs": [
        {
          "internalType": "address",
          "name": "",
          "type": "address"
        }
      ],
      "name": "refundPool",
      "outputs": [
        {
          "internalType": "uint256",
          "name": "",
          "type": "uint256"
        }
      ],
      "stateMutability": "view",
      "type": "function",
      "constant": true
    },
    {
      "inputs": [],
      "name": "bid",
      "outputs": [],
      "stateMutability": "payable",
      "type": "function",
      "payable": true
    },
    {
      "inputs": [],
      "name": "withdraw",
      "outputs": [
        {
          "internalType": "bool",
          "name": "",
          "type": "bool"
        }
      ],
      "stateMutability": "nonpayable",
      "type": "function"
    },
    {
      "inputs": [],
      "name": "end",
      "outputs": [],
      "stateMutability": "nonpayable",
      "type": "function"
    }
  ],
  "bytecode": "0x608060405234801561001057600080fd5b506040516109353803806109358339818101604052604081101561003357600080fd5b810190808051906020019092919080519060200190929190505050816000806101000a81548173ffffffffffffffffffffffffffffffffffffffff021916908373ffffffffffffffffffffffffffffffffffffffff160217905550804201600181905550505061088d806100a86000396000f3fe6080604052600436106100865760003560e01c80633ccfd60b116100595780633ccfd60b1461012e57806391f901571461015b578063d57bde791461019c578063e4db0c5e146101c7578063efbe1c1c1461022c57610086565b806312fa6feb1461008b5780631998aeef146100b857806329dcb0cf146100c257806338af3eed146100ed575b600080fd5b34801561009757600080fd5b506100a0610243565b60405180821515815260200191505060405180910390f35b6100c0610256565b005b3480156100ce57600080fd5b506100d7610460565b6040518082815260200191505060405180910390f35b3480156100f957600080fd5b50610102610466565b604051808273ffffffffffffffffffffffffffffffffffffffff16815260200191505060405180910390f35b34801561013a57600080fd5b5061014361048a565b60405180821515815260200191505060405180910390f35b34801561016757600080fd5b5061017061061a565b604051808273ffffffffffffffffffffffffffffffffffffffff16815260200191505060405180910390f35b3480156101a857600080fd5b506101b1610640565b6040518082815260200191505060405180910390f35b3480156101d357600080fd5b50610216600480360360208110156101ea57600080fd5b81019080803573ffffffffffffffffffffffffffffffffffffffff169060200190929190505050610646565b6040518082815260200191505060405180910390f35b34801561023857600080fd5b5061024161065e565b005b600260009054906101000a900460ff1681565b60015442106102cd576040517f08c379a00000000000000000000000000000000000000000000000000000000081526004018080602001828103825260118152602001807f61756374696f6e2068617320656e64656400000000000000000000000000000081525060200191505060405180910390fd5b6003543411610344576040517f08c379a00000000000000000000000000000000000000000000000000000000081526004018080602001828103825260118152602001807f6e6565642061206869676865722062696400000000000000000000000000000081525060200191505060405180910390fd5b600060035411156103c15760035460056000600460009054906101000a900473ffffffffffffffffffffffffffffffffffffffff1673ffffffffffffffffffffffffffffffffffffffff1673ffffffffffffffffffffffffffffffffffffffff168152602001908152602001600020600082825401925050819055505b3460038190555033600460006101000a81548173ffffffffffffffffffffffffffffffffffffffff021916908373ffffffffffffffffffffffffffffffffffffffff1602179055507ff4757a49b326036464bec6fe419a4ae38c8a02ce3e68bf0809674f6aab8ad3003334604051808373ffffffffffffffffffffffffffffffffffffffff1681526020018281526020019250505060405180910390a1565b60015481565b60008054906101000a900473ffffffffffffffffffffffffffffffffffffffff1681565b600080600560003373ffffffffffffffffffffffffffffffffffffffff1673ffffffffffffffffffffffffffffffffffffffff16815260200190815260200160002054905060008111610545576040517f08c379a00000000000000000000000000000000000000000000000000000000081526004018080602001828103825260118152602001807f6e6f7468696e6720746f20726566756e6400000000000000000000000000000081525060200191505060405180910390fd5b6000600560003373ffffffffffffffffffffffffffffffffffffffff1673ffffffffffffffffffffffffffffffffffffffff168152602001908152602001600020819055503373ffffffffffffffffffffffffffffffffffffffff166108fc829081150290604051600060405180830381858888f193505050506106115780600560003373ffffffffffffffffffffffffffffffffffffffff1673ffffffffffffffffffffffffffffffffffffffff168152602001908152602001600020819055506000915050610617565b60019150505b90565b600460009054906101000a900473ffffffffffffffffffffffffffffffffffffffff1681565b60035481565b60056020528060005260406000206000915090505481565b60015442116106d5576040517f08c379a00000000000000000000000000000000000000000000000000000000081526004018080602001828103825260198152602001807f61756374696f6e20686173206e6f7420656e646564207965740000000000000081525060200191505060405180910390fd5b600260009054906101000a900460ff1615610758576040517f08c379a00000000000000000000000000000000000000000000000000000000081526004018080602001828103825260168152602001807f61756374696f6e20686173206265656e20656e6465640000000000000000000081525060200191505060405180910390fd5b6001600260006101000a81548160ff0219169083151502179055507fdaec4582d5d9595688c8c98545fdd1c696d41c6aeaeb636737e84ed2f5c00eda600460009054906101000a900473ffffffffffffffffffffffffffffffffffffffff16600354604051808373ffffffffffffffffffffffffffffffffffffffff1681526020018281526020019250505060405180910390a160008054906101000a900473ffffffffffffffffffffffffffffffffffffffff1673ffffffffffffffffffffffffffffffffffffffff166108fc6003549081150290604051600060405180830381858888f19350505050158015610854573d6000803e3d6000fd5b5056fea2646970667358221220022283da487539e877cd03ecacc01c69f6c9256b9b47cf4c76b467eaff913d3b64736f6c63430007040033",
  "immutableReferences": {},
  "source": "// SPDX-License-Identifier: UNLICENSED\n\npragma solidity ^0.7.4;\n\ncontract Auction {\n    address payable public beneficiary;\n    uint public deadline;\n    bool public ended;\n    uint public highestBid;\n    address public highestBidder;\n    mapping(address => uint) public refundPool;\n    \n\n    event HighestBidIncreased(address _bidder, uint _bid);\n    event AuctionEnded(address _bidder, uint _bid);\n\n    constructor(address payable _beneficiary, uint _after) {\n        beneficiary = _beneficiary;\n        deadline = block.timestamp + _after;\n    }\n\n    function bid() payable public {\n        require(block.timestamp<deadline, \"auction has ended\");\n        require(msg.value > highestBid, \"need a higher bid\");\n        if (highestBid>0) {\n            refundPool[highestBidder] += highestBid;\n        }\n        highestBid = msg.value;\n        highestBidder = msg.sender;\n        emit HighestBidIncreased(msg.sender, msg.value);\n    }\n\n    function withdraw() public returns(bool) {\n        uint fund = refundPool[msg.sender];\n        require(fund > 0, \"nothing to refund\");\n        refundPool[msg.sender] = 0;\n        if (!msg.sender.send(fund)) {\n            refundPool[msg.sender] = fund;\n            return false;\n        }\n        return true;\n    }\n\n    function end() public {\n        require(block.timestamp>deadline, \"auction has not ended yet\");\n        require(!ended, \"auction has been ended\");\n        ended = true;\n        emit AuctionEnded(highestBidder, highestBid);\n        beneficiary.transfer(highestBid);\n    }\n}\n",
  "sourcePath": "/Users/luxiaotong/code/blockchain_practice/OpenAuction/contracts/Auction.sol",
  "compiler": {
    "name": "solc",
    "version": "0.7.4+commit.3f05b770.Linux.g++"
  },
  "schemaVersion": "3.3.1",
  "updatedAt": "2020-11-06T07:45:02.729Z",
  "networkType": "ethereum",
  "devdoc": {
    "kind": "dev",
    "methods": {},
    "version": 1
  },
  "userdoc": {
    "kind": "user",
    "methods": {},
    "version": 1
  }
}