{
  "contractName": "Ballot",
  "abi": [
    {
      "inputs": [
        {
          "internalType": "bytes32[]",
          "name": "_choices",
          "type": "bytes32[]"
        }
      ],
      "stateMutability": "nonpayable",
      "type": "constructor"
    },
    {
      "inputs": [
        {
          "internalType": "uint256",
          "name": "",
          "type": "uint256"
        }
      ],
      "name": "choices",
      "outputs": [
        {
          "internalType": "bytes32",
          "name": "name",
          "type": "bytes32"
        },
        {
          "internalType": "uint256",
          "name": "n",
          "type": "uint256"
        }
      ],
      "stateMutability": "view",
      "type": "function",
      "constant": true
    },
    {
      "inputs": [],
      "name": "holder",
      "outputs": [
        {
          "internalType": "address",
          "name": "",
          "type": "address"
        }
      ],
      "stateMutability": "view",
      "type": "function",
      "constant": true
    },
    {
      "inputs": [
        {
          "internalType": "address",
          "name": "",
          "type": "address"
        }
      ],
      "name": "voters",
      "outputs": [
        {
          "internalType": "uint256",
          "name": "cid",
          "type": "uint256"
        },
        {
          "internalType": "bool",
          "name": "voted",
          "type": "bool"
        },
        {
          "internalType": "uint256",
          "name": "weight",
          "type": "uint256"
        },
        {
          "internalType": "address",
          "name": "delegate",
          "type": "address"
        }
      ],
      "stateMutability": "view",
      "type": "function",
      "constant": true
    },
    {
      "inputs": [
        {
          "internalType": "uint256",
          "name": "_cid",
          "type": "uint256"
        }
      ],
      "name": "vote",
      "outputs": [],
      "stateMutability": "nonpayable",
      "type": "function"
    },
    {
      "inputs": [
        {
          "internalType": "address",
          "name": "_voter",
          "type": "address"
        }
      ],
      "name": "right",
      "outputs": [],
      "stateMutability": "nonpayable",
      "type": "function"
    },
    {
      "inputs": [
        {
          "internalType": "address",
          "name": "_voter",
          "type": "address"
        }
      ],
      "name": "delegate",
      "outputs": [],
      "stateMutability": "nonpayable",
      "type": "function"
    },
    {
      "inputs": [],
      "name": "winner",
      "outputs": [
        {
          "internalType": "bytes32",
          "name": "name_",
          "type": "bytes32"
        }
      ],
      "stateMutability": "view",
      "type": "function",
      "constant": true
    }
  ],
  "bytecode": "0x608060405234801561001057600080fd5b50604051610d2b380380610d2b8339818101604052602081101561003357600080fd5b810190808051604051939291908464010000000082111561005357600080fd5b8382019150602082018581111561006957600080fd5b825186602082028301116401000000008211171561008657600080fd5b8083526020830192505050908051906020019060200280838360005b838110156100bd5780820151818401526020810190506100a2565b50505050905001604052505050336000806101000a81548173ffffffffffffffffffffffffffffffffffffffff021916908373ffffffffffffffffffffffffffffffffffffffff16021790555060018060008060009054906101000a900473ffffffffffffffffffffffffffffffffffffffff1673ffffffffffffffffffffffffffffffffffffffff1673ffffffffffffffffffffffffffffffffffffffff1681526020019081526020016000206002018190555060005b81518110156101f5576002604051806040016040528084848151811061019757fe5b6020026020010151815260200160008152509080600181540180825580915050600190039060005260206000209060020201600090919091909150600082015181600001556020820151816001015550508080600101915050610175565b5050610b25806102066000396000f3fe608060405234801561001057600080fd5b506004361061007d5760003560e01c8063a3ec138d1161005b578063a3ec138d14610138578063dfbf53ae146101bd578063e534155d146101db578063f6fd7fde1461020f5761007d565b80630121b93f146100825780635c19a95c146100b0578063799209a0146100f4575b600080fd5b6100ae6004803603602081101561009857600080fd5b8101908080359060200190929190505050610258565b005b6100f2600480360360208110156100c657600080fd5b81019080803573ffffffffffffffffffffffffffffffffffffffff1690602001909291905050506103fa565b005b6101366004803603602081101561010a57600080fd5b81019080803573ffffffffffffffffffffffffffffffffffffffff16906020019092919050505061081c565b005b61017a6004803603602081101561014e57600080fd5b81019080803573ffffffffffffffffffffffffffffffffffffffff1690602001909291905050506109a8565b6040518085815260200184151581526020018381526020018273ffffffffffffffffffffffffffffffffffffffff16815260200194505050505060405180910390f35b6101c5610a05565b6040518082815260200191505060405180910390f35b6101e3610a97565b604051808273ffffffffffffffffffffffffffffffffffffffff16815260200191505060405180910390f35b61023b6004803603602081101561022557600080fd5b8101908080359060200190929190505050610abb565b604051808381526020018281526020019250505060405180910390f35b6000600160003373ffffffffffffffffffffffffffffffffffffffff1673ffffffffffffffffffffffffffffffffffffffff1681526020019081526020016000209050600015158160010160009054906101000a900460ff16151514610326576040517f08c379a000000000000000000000000000000000000000000000000000000000815260040180806020018281038252600e8152602001807f4a75737420766f7465206f6e636500000000000000000000000000000000000081525060200191505060405180910390fd5b60008160020154116103a0576040517f08c379a00000000000000000000000000000000000000000000000000000000081526004018080602001828103825260108152602001807f4e6f20726967687420746f20766f74650000000000000000000000000000000081525060200191505060405180910390fd5b60018160010160006101000a81548160ff0219169083151502179055508181600001819055508060020154600283815481106103d857fe5b9060005260206000209060020201600101600082825401925050819055505050565b3373ffffffffffffffffffffffffffffffffffffffff168173ffffffffffffffffffffffffffffffffffffffff16141561049c576040517f08c379a00000000000000000000000000000000000000000000000000000000081526004018080602001828103825260178152602001807f6f6e6c792064656c656761746520746f206f746865727300000000000000000081525060200191505060405180910390fd5b6000600160003373ffffffffffffffffffffffffffffffffffffffff1673ffffffffffffffffffffffffffffffffffffffff1681526020019081526020016000209050600015158160010160009054906101000a900460ff1615151461056a576040517f08c379a000000000000000000000000000000000000000000000000000000000815260040180806020018281038252600a8152602001807f6861766520766f7465640000000000000000000000000000000000000000000081525060200191505060405180910390fd5b5b600073ffffffffffffffffffffffffffffffffffffffff16600160008473ffffffffffffffffffffffffffffffffffffffff1673ffffffffffffffffffffffffffffffffffffffff16815260200190815260200160002060030160009054906101000a900473ffffffffffffffffffffffffffffffffffffffff1673ffffffffffffffffffffffffffffffffffffffff161461070d57600160008373ffffffffffffffffffffffffffffffffffffffff1673ffffffffffffffffffffffffffffffffffffffff16815260200190815260200160002060030160009054906101000a900473ffffffffffffffffffffffffffffffffffffffff1691503373ffffffffffffffffffffffffffffffffffffffff168273ffffffffffffffffffffffffffffffffffffffff161415610708576040517f08c379a00000000000000000000000000000000000000000000000000000000081526004018080602001828103825260188152602001807f466f756e64206c6f6f7020696e2064656c65676174696f6e000000000000000081525060200191505060405180910390fd5b61056b565b6000600160008473ffffffffffffffffffffffffffffffffffffffff1673ffffffffffffffffffffffffffffffffffffffff168152602001908152602001600020905060018260010160006101000a81548160ff021916908315150217905550828260030160006101000a81548173ffffffffffffffffffffffffffffffffffffffff021916908373ffffffffffffffffffffffffffffffffffffffff1602179055508060010160009054906101000a900460ff161561080057816002015460028260000154815481106107dd57fe5b906000526020600020906002020160010160008282540192505081905550610817565b816002015481600201600082825401925050819055505b505050565b60008054906101000a900473ffffffffffffffffffffffffffffffffffffffff1673ffffffffffffffffffffffffffffffffffffffff163373ffffffffffffffffffffffffffffffffffffffff16146108dd576040517f08c379a000000000000000000000000000000000000000000000000000000000815260040180806020018281038252601c8152602001807f6f6e6c7920686f6c6465722063616e207570646174652072696768740000000081525060200191505060405180910390fd5b6000600160008373ffffffffffffffffffffffffffffffffffffffff1673ffffffffffffffffffffffffffffffffffffffff1681526020019081526020016000209050600081600201541461099a576040517f08c379a00000000000000000000000000000000000000000000000000000000081526004018080602001828103825260118152602001807f68617320726967687420746f20766f746500000000000000000000000000000081525060200191505060405180910390fd5b600181600201819055505050565b60016020528060005260406000206000915090508060000154908060010160009054906101000a900460ff16908060020154908060030160009054906101000a900473ffffffffffffffffffffffffffffffffffffffff16905084565b6000806000905060005b600280549050811015610a92578160028281548110610a2a57fe5b9060005260206000209060020201600101541115610a855760028181548110610a4f57fe5b906000526020600020906002020160000154925060028181548110610a7057fe5b90600052602060002090600202016001015491505b8080600101915050610a0f565b505090565b60008054906101000a900473ffffffffffffffffffffffffffffffffffffffff1681565b60028181548110610acb57600080fd5b9060005260206000209060020201600091509050806000015490806001015490508256fea26469706673582212204c2d2dde3afe3625a04ee9f803b8cbac4e4cae77c8a930e06d7db7fdf877b24e64736f6c63430007040033",
  "immutableReferences": {},
  "source": "// SPDX-License-Identifier: UNLICENSED\n\npragma solidity >=0.5.16 <=0.7.4;\n\ncontract Ballot {\n    struct Choice {\n        bytes32 name;\n        uint n;\n    }\n    struct Voter {\n        uint cid;\n        bool voted;\n        uint weight;\n        address delegate;\n    }\n\n    address public holder;\n    mapping (address => Voter) public voters;\n    Choice[] public choices;\n\n    constructor(bytes32[] memory _choices) {\n        holder = msg.sender;\n        voters[holder].weight = 1;\n        for(uint i = 0; i < _choices.length; i ++) {\n            choices.push(Choice({\n                name: _choices[i],\n                n: 0\n            }));\n        }\n    }\n\n    function vote(uint _cid) public {\n        Voter storage voter = voters[msg.sender];\n        require(voter.voted == false, \"Just vote once\");\n        require(voter.weight > 0, \"No right to vote\");\n        voter.voted = true;\n        voter.cid = _cid;\n        choices[_cid].n += voter.weight;\n    }\n\n    function right(address _voter) public {\n        require(msg.sender == holder, \"only holder can update right\");\n        Voter storage voter = voters[_voter];\n        require(voter.weight == 0, \"has right to vote\");\n        voter.weight = 1;\n    }\n\n    function delegate(address _voter) public {\n        require(_voter != msg.sender, \"only delegate to others\");\n\n        Voter storage me = voters[msg.sender];\n        require(me.voted == false, \"have voted\");\n\n        while(voters[_voter].delegate != address(0)) {\n            _voter = voters[_voter].delegate;\n            require(_voter != msg.sender, \"Found loop in delegation\");\n        }\n        Voter storage voter = voters[_voter];\n\n        me.voted = true;\n        me.delegate = _voter;\n\n        if (voter.voted) {\n            choices[voter.cid].n += me.weight;\n        } else {\n            voter.weight += me.weight;\n        }\n    }\n\n    function winner() public view returns(bytes32 name_) {\n        uint max = 0;\n        for(uint i = 0; i < choices.length; i ++) {\n            if (choices[i].n > max) {\n                name_ = choices[i].name;\n                max = choices[i].n;\n            }\n        }\n    }\n}\n\n// let accounts = await web3.eth.getAccounts()\n// let instance = await Ballot.deployed()\n// instance.vote(1)\n// instance.vote(1, {\"from\":accounts[1]})\n// instance.vote(1, {\"from\":accounts[2]})\n// let n = await instance.getVote(1)\n// n.toNumber()\n// winner = await instance.winner()\n// web3.utils.hexToString(winner)",
  "sourcePath": "/Users/luxiaotong/code/blockchain_practice/Ballot/contracts/Ballot.sol",
  "compiler": {
    "name": "solc",
    "version": "0.7.4+commit.3f05b770.Linux.g++"
  },
  "schemaVersion": "3.3.1",
  "updatedAt": "2020-11-05T15:20:40.261Z",
  "networkType": "ethereum",
  "devdoc": {
    "kind": "dev",
    "methods": {},
    "version": 1
  },
  "userdoc": {
    "kind": "user",
    "methods": {},
    "version": 1
  }
}